:10126D00CDA800B2BBCDA800BEAFB8E600B7C7B7DA
:10127D00A8BFA800BEAFB8E6A3ACBEAFB8E600C726
:10128D00EBB7C5BFA800BFA8BAC5A3BA00D7B4CCE9
:10129D00ACA3BA00D4F6BCD3C8A8CFDE2B00B6C120
:1012AD00BFA8C4A3CABD00BFA8BAC53A00B6C1BF86
:1012BD00A83A2D2D2D2D00D7A2B2E1C4A3CABD0091
:1012CD00BFAABFA8A3BA2D2D2D2D00D7A2D2E20003
:1012DD00D2D1C8E7B2DECEE5B7D6D6D300C7EBC1C3
:1012ED00F4D2E2C0CFC8CBD7B4BFF600D2D1C0EB99
:1012FD00BFAA00364533344637373100C0CFC8CB8F
:10130D00BFA800C8E7B2DED6D000C7EBC9D4BAF388
:10131D00D4D9CBA2BFA8004242334635384446004B
:10132D00C6D5CDA8BFA8004432334543334239005A
:10133D00CAB1D0A7BFA800CEB4B7D6C0E000C9CF00
:10134D00CEBBBBFABFD8D6C600D2BBD1A1D4F1BF9C
:10135D00D8D6C6C4A3CABD00B6FEB6C1D0B4BFA808
:10136D00C4DAD0C5CFA200D7A2B2E1B3C9B9A600E5
:06137D0020121001000027
:1016A50046009FFFFFFFFFFFFF50008F0000000077
:1016B5000000000000000000000000005000AB002A
:1016C5000000000000FF07806900000000000041E5
:1016D500008D0141008E024100BC014200BD0000A9
:0E16E5004100BB014200A500014200A7000227
:10227A007BFF7A12796D9000427403F0FD121FD130
:10228A00C295D2B47FD07E07122212D295C2B4224E
:10200C007BFF7A1279709000427403F0FD121FD19D
:10201C00D297E490002AF0C297D2B47FC87E001207
:10202C002212C2B4D2977FC87E0012221290002ACC
:09203C00E004F0E0C3940340DE6F
:012045002278
:102046007BFF7A1279759000427403F0FD121FD15E
:10205600D297E490003DF0C297D2B47F967E0012EC
:102066002212C2B4D2977F967E0012221290003DB1
:09207600E004F0E0C3940540DE33
:01207F00223E
:0B20800090002AEBF0A3EAF0A3E9F0C7
:10208B00782D7C007D017BFF7A13797D7E007F06A6
:10209B001200F690002AE0FBA3E0FAA3E0F8AC02F2
:0F20AB00AD037B017A00792D7E007F060200F6DF
:081D9100E0FBA3E0FAA3E0F976
:101D9900900001120135FF12011C2F24029000311D
:101DA900F090002EEBF0A3EAF0A3E9F07FFC1223F8
:101DB900AE90003274FCF0E4A3F0900031E0FF90A3
:101DC9000033E0C39F503590002EE0FBA3E0FAA357
:101DD900E0F912011CFF1223AE900032E0FF9000DF
:101DE9002EE0FBA3E475F0011201BEA9F0FA12017D
:101DF9001C6F900032F0A3E004F080BE900032E046
:041E0900FF0223AE03
:0E239200E4900057F0900059F0900058F022AF
:0B23BC0090000574AA1201747F01223A
:1017F400900003EBF0A3EAF0A3E9F07B017A00790F
:101804008F7F26121C04EF60207B017A00798F7F82
:1018140026121C04EF6012900003E0FBA3E0FAA37D
:10182400E0F99000047409801C7B017A007991121C
:101834001538EF9000036030E0FBA3E0FAA3E0F971
:10184400900004740A120174900001120135FF7EA5
:10185400007D00E92405F9E43AFA12050F9000BD71
:10186400E4F0A304F07F0022E0FBA3E0FAA3E02469
:1018740005F9E43AA801FCAD037B017A0079917E75
:0E188400007F041200F69000BC7401F0FF22F9
:0B0E4F00900003EBF0A3EAF0A3E9F031
:100E5A009000017407120174900005120135900088
:100E6A000CF0540364036013900003E0FBA3E0FA60
:100E7A00A3E0F9900004740C020F807B017A0079D8
:100E8A008F7F26121C04EF60217B017A00798F7F05
:100E9A0026121C04EF6013900003E0FBA3E0FAA300
:100EAA00E0F99000047409020F807B017A007991BD
:100EBA00121538EF6013900003E0FBA3E0FAA3E0F9
:100ECA00F9900004740A020F807B017A007991126A
:100EDA0015F5EF6013900003E0FBA3E0FAA3E0F935
:100EEA00900004740B020F80900003E0FBA3E0FA69
:100EFA00A3E02406F9E43AFA78067C007D017E0034
:100F0A007F061200F690000CE0FD90002F7401F0AD
:100F1A00A37400F0A37491F07B017A0079067F60D4
:100F2A00121E0DEF6012900003E0FBA3E0FAA3E0AB
:100F3A00F99000047404803E900003E0FBA3E0FAF9
:100F4A00A3E0240CF9E43AFA78AB7C007D017E0038
:100F5A007F061200F690000CE0FF7B017A0079AB65
:100F6A001219C5EF602E900003E0FBA3E0FAA3E09C
:100F7A00F990000474061201747E007F067D00E970
:100F8A002406F9E43AFA12050F9000BDE4F0A3042E
:100F9A00F07F00227E007F067D00900003E0FBA325
:100FAA00E0FAA3E02406F9E43AFA12050F9000BC2D
:040FBA007401F0FFCF
:010FBE002210
:0B0FBF00900003EBF0A3EAF0A3E9F0C0
:100FCA00900001741112017490000512013590000D
:100FDA001CF0540364037013900003E0FBA3E0FACF
:100FEA00A3E0F9900004740C0210F07B017A0079F6
:100FFA008F7F26121C04EF60217B017A00798F7F94
:10100A0026121C04EF6013900003E0FBA3E0FAA38E
:10101A00E0F990000474090210F07B017A007991DA
:10102A00121538EF6013900003E0FBA3E0FAA3E087
:10103A00F9900004740A0210F07B017A0079911287
:10104A0015F5EF6013900003E0FBA3E0FAA3E0F9C3
:10105A00900004740B0210F0900003E0FBA3E0FA86
:10106A00A3E02406F9E43AFA78167C007D017E00B2
:10107A007F061200F690001CE0FD90002F7401F02C
:10108A00A37400F0A37491F07B017A0079167F6053
:10109A00121E0DEF6012900003E0FBA3E0FAA3E03A
:1010AA00F99000047404803E900003E0FBA3E0FA88
:1010BA00A3E0240CF9E43AFA78067C007D017E006C
:1010CA007F101200F690001CE0FF7B017A0079067F
:1010DA001219C5EF602E900003E0FBA3E0FAA3E02B
:1010EA00F990000474061201747E007F107D00E9F5
:1010FA002406F9E43AFA12050F9000BDE4F0A304BD
:0B110A00F07F00229000BC7401F0FF99
:0111150022B7
:0B111600900003EBF0A3EAF0A3E9F067
:1011210090000174111201749000051201359000B4
:101131001CF0540364037013900003E0FBA3E0FA76
:10114100A3E0F9900004740C0212297B017A007962
:101151008F7F26121C04EF60217B017A00798F7F3B
:1011610026121C04EF6013900003E0FBA3E0FAA336
:10117100E0F990000474090212297B017A00799147
:10118100121538EF6013900003E0FBA3E0FAA3E02F
:10119100F9900004740A0212297B017A00799112F4
:1011A10015F5EF6012900003E0FBA3E0FAA3E0F96C
:1011B100900004740B8071900003E0FBA3E0FAA39C
:1011C100E02406F9E43AFA78167C007D017E007F7E
:1011D100061200F690001CE0FD90002F7401F0A3B0
:1011E1007400F0A37491F07B017A0079167F60128C
:1011F1001E0DEF6012900003E0FBA3E0FAA3E0F9FB
:101201009000047404802190001CE0FF7B017A00AF
:101211007906121A5BEF900003602BE0FBA3E0FA62
:10122100A3E0F990000474051201747E007F107D23
:1012310000E92406F9E43AFA12050F9000BDE4F042
:10124100A304F07F0022E0FBA3E0FAA3E02406F967
:10125100E43AA801FCAD037B017A0079067E007FA8
:0B126100101200F69000BC7401F0FFBA
:01126C00225F
:1020F3001222367F027E001222127BFF7A12797A35
:102103009000427403F07D01121FD17BFF7A127994
:10211300819000427402F0FD121FD17F027E0012F3
:05212300221202200C55
:101473007E007F0A7D007B017A00792A12050F9096
:10148300008EE0607B14602124FE60480460030248
:1014930015371222367F027E001222127BFF7A1248
:1014A300798C9000427402800D1222367BFF7A12EF
:1014B30079A1E4900042F07D01121FD17BFF7A12E3
:1014C3007993E4900042F07D02121FD17BFF7A12E0
:1014D300799A80561222367BFF7A1279AB900042BA
:1014E3007403F07D01121FD17BFF7A1279B4E4906B
:1014F3000042F07D02121FD17BFF7A1279BA802A53
:101503001222367BFF7A1279C49000427403F07D75
:1015130001121FD17BFF7A127993E4900042F07D90
:1015230002121FD17BFF7A1279CDE4900042F07D45
:0415330003121FD1AF
:011537002291
:0E0CC400900026E0FCA3E0FDA3E0FEA3E0FF0D
:060CD20090002A12030A43
:100CD8009000387401F0A37400F0A3742EF0E47F40
:100CE8000F7E27FDFC90002AE0F8A3E0F9A3E0FAC4
:100CF800A3E0FBD31202F9400A90002A120316005F
:100D080000270F90002AE0FCA3E0FDA3E0FEA3E08B
:100D1800FF90003B12030AE47BE87A03F9F890009D
:100D28003BE0FCA3E0FDA3E0FEA3E0FF120267EFB7
:100D38002430FF900038E0FBA3E475F0011201BEF7
:100D4800A9F0FAEF12016290003BE0FCA3E0FDA3DA
:100D5800E0FEA3E0FFE47BE87A03F9F8120267AC4F
:100D680000AD01AE02AF0390003B12030AE47B64BE
:100D7800FAF9F890003BE0FCA3E0FDA3E0FEA3E055
:100D8800FF120267EF2430FF900038E0FBA3E47500
:100D9800F0011201BEA9F0FAEF12016290003BE0E7
:100DA800FCA3E0FDA3E0FEA3E0FFE47B64FAF9F80E
:100DB800120267AC00AD01AE02AF0390003B120314
:100DC8000AE47B0AFAF9F890003BE0FCA3E0FDA3F3
:100DD800E0FEA3E0FF120267EF2430FF900038E046
:100DE800FBA3E475F0011201BEA9F0FAEF1201624B
:100DF80090003BE0FCA3E0FDA3E0FEA3E0FFE47B62
:100E08000AFAF9F8120267AC00AD01AE02AF03901E
:100E1800003B12030A90003BA3A3A3E02430FF90F9
:100E28000038E0FBA3E475F0011201BEA9F0FAEF67
:100E3800120162900038E0FBA3E475F0011201BED4
:070E4800A9F0FAE4020162C7
:101AEC007FD07E0712221290003BE4F0A37405F025
:101AFC00C2967FD07E07122212D2967FD07E07121A
:101B0C00221290003CE024FFF090003BE034FFF008
:101B1C00D3A3E0940090003BE0940050D390008E4F
:101B2C007402F01222367F027E001222127BFF7AA0
:101B3C001279D89000427403F07D01121FD17BFF03
:101B4C007A1279DDE4900042F07D02121FD17BFF06
:101B5C007A1279EAE4900042F07D03121FD17FB82B
:0B1B6C007E0B122212122236122046BD
:011B7700224B
:0B08960090002AEBF0A3EAF0A3E9F0C9
:1008A1009000377401F0A37400F0A3742DF0E4A359
:1008B100F090002AE0FBA3E0FAA3E0F912011CC4C6
:1008C100540FFFC39400400BEFD394095005EF245C
:1008D100308003EF2437FE900037E0FBA3E475F08E
:1008E100011201BEA9F0FAEE12016290002AE0FBAA
:1008F100A3E0FAA3E0F912011C540FFFC3940040D6
:100901000BEFD394095005EF24308003EF2437FF18
:10091100900037E0FBA3E475F0011201BEA9F0FAE3
:10092100EF12016290002BE475F0011201A8900012
:100931003AE004F0E0640460030208B2900037E09A
:10094100FBA3E475F0011201BEA9F0FAE412016201
:10095100782D7C007D017BFF7A1379001204F2EF80
:100961006003020A1F90008EE024FE6003020A0D5C
:100971001222367F147E001222127BFF7A1379092C
:100981009000427403F07D01121FD17BFF7A12792E
:1009910093E4900042F07D02121FD17B017A00792D
:1009A1002D9000427403F07D02121FD17BFF7A1259
:1009B100799AE4900042F07D03121FD112227A123B
:1009C10022367F027E001222127BFF7A1379109069
:1009D10000427402F0FD121FD17BFF7A1379179048
:1009E10000427401F07D03121FD1121AEC121F8410
:1009F10090003AEFF0BF02077FD07E07122212D299
:100A0100B47FE87E03122212C2B480751222367FAF
:100A1100147E001222127BFF7A1379098058782DF7
:100A21007C007D017BFF7A1379241204F2EF7012AE
:100A31001222367F147E001222127BFF7A13792D47
:100A41008034782D7C007D017BFF7A137934120488
:100A5100F2EF70121222367F147E001222127BFFF7
:100A61007A13793D80101222367F147E00122212F1
:100A71007BFF7A1379449000427403F07D01121FC9
:100A8100D17BFF7A127993E4900042F07D02121F2C
:100A9100D17B017A00792D9000427403F07D02121E
:100AA1001FD17BFF7A12799AE4900042F07D030214
:020AB1001FD153
:101E7600E490008DF07BFF7A13794B90004204F0DA
:101E8600FD121FD17BFF7A137956E4900042F07D54
:101E960002121FD17BFF7A137965E4900042F07D30
:101EA60003121FD17F887E131222121222367BFF65
:101EB6007A13794B9000427401F0FD121FD17BFF1B
:101EC6007A12799AE4900042F07D03121FD17F01C5
:011ED60022E9
:0623D2001214737F0122CA
:101383007FFE900058E06401600302147290000035
:101393007401F0A37400F0A3745AF0900000E0FB12
:1013A300A3E0FAA3E0F9900001120135FE12011C3B
:1013B3002E2403FEE4FDEE14FCEDC39C5010745A7E
:1013C3002DF582E43400F583E06FFF0D80E8900093
:1013D30000E0FBA3E0FAA3E0F99000021201D412AB
:1013E3000347140100021406000314160110142607
:1013F3000120143601301446014000001456122314
:10140300BC8063900000E0FBA3E0FAA3E0F91217AD
:10141300F48053900000E0FBA3E0FAA3E0F9120E7E
:101423004F8043900000E0FBA3E0FAA3E0F9121120
:10143300168033900000E0FBA3E0FAA3E0F9120F5B
:10144300BF8023900000E0FBA3E0FAA3E0F912239E
:10145300D28013900000E0FBA3E0FAA3E0F9900030
:0F146300047402120174900000121D9112239262
:011472002257
:101892007FFEE490002DF0900058E06401600302A6
:1018A200192890002A7401F0A37400F0A3745AF06E
:1018B20090002AE0FBA3E0FAA3E0F99000011201F4
:1018C20035FE12011C2E2403FEE4FDEE14FCEDC3D2
:1018D2009C5010745A2DF582E43400F583E06FFFBA
:1018E2000D80E890002AE0FBA3E0FAA3E0F9900063
:1018F200021201D4120347190101410000190C120E
:101902001E7690002D7401F0801390002AE0FBA354
:10191200E0FAA3E0F9900004740212017490002A24
:0B192200121D9112239290002DE0FF97
:01192D002297
:10053B00121892EF64017003020895121F84EF24C6
:10054B00FE601B14602A14603B2403707012223669
:10055B0090008E7402F07BFF7A12798C800F12223E
:10056B003690008E7401F07BFF7A1279A1E4800F34
:10057B0012223690008E7403F07BFF7A1279AB90C7
:10058B0000428013122236E490008EF07BFF7A1229
:10059B0079C49000427403F07D01121FD17BFF7A66
:1005AB00127993E4900042F07D02121FD17BFF7A07
:1005BB0012799AE4900042F07D03121FD17B017AED
:1005CB0000798F7F26121C04EF60107B017A007973
:1005DB008F7F26121C04EF6002801A7B017A007950
:1005EB0091121538EF6002800C7B017A0079911221
:1005FB0015F5EF60030214737B017A0079911208F1
:10060B00967B017A00792012208090008EE0147086
:10061B00030206BE14700302076A14700302084437
:10062B002403600302089290002F7401F0A374005E
:10063B00F0A37491F07B017A00799F7D047F6012A7
:10064B001E0DEF60030208737E007F107D007B019F
:10065B007A00791012050F7B017A0079107F041252
:10066B0019C5EF600302087378107C007D017B01D4
:10067B007A0079AB7E007F101200F678107C007D3B
:10068B00017B017A0079207E007F061200F67B0148
:10069B007A0079107F071219C5EF60030208737B8C
:1006AB00FF7A1379749000427403F07D01121FD10D
:1006BB0002088C90002F7401F0A37400F0A37491C6
:1006CB00F07B017A0079207D047F60121E0DEF60B4
:1006DB00030208737B017A0079007F04121A5BEF27
:1006EB00600302087378267C007D017B017A007918
:1006FB00007E007F041200F6900026E0F8A3E0F9DC
:10070B00A3E0FAA3E0FB9000A7E0FEA3E0FFEE332B
:10071B0095E0FDFCEB2FFFEA3EFEE93DFDE83CFCDE
:10072B0090002612030A7E007F107D007B017A0069
:10073B00791012050F78107C007D017B017A00790E
:10074B00267E007F041200F67B017A0079107F046D
:10075B001219C5EF6003020873120CC402088C90C7
:10076B00002F7401F0A37400F0A37491F07B017A55
:10077B000079207D047F60121E0DEF60030208627A
:10078B007B017A0079007F04121A5BEF6003020889
:10079B006278267C007D017B017A0079007E007FE8
:1007AB00041200F6E4FFFEFDFC900026E0F8A3E047
:1007BB00F9A3E0FAA3E0FBC31202F9700C1220F3C9
:1007CB009000BDE4F0A304F022900026E0FCA3E02F
:1007DB00FDA3E0FEA3E0FFC006C0079000A5E0FE6E
:1007EB00A3E0FBAA06EA3395E0F9F8D007D006C3DD
:1007FB00EF9BFFEE9AFEED99FDEC98FC9000261214
:10080B00030A7E007F107D007B017A0079101205B0
:10081B000F78107C007D017B017A0079267E007FAA
:10082B00041200F67B017A0079107F041219C5EFD0
:10083B0060028023120CC4804890002F7401F0A337
:10084B007400F0A37491F07B017A0079207D047F12
:10085B0060121E0DEF60030220F37B017A0079001A
:10086B007F04121A5BEF600302204678267C007D22
:10087B00017B017A0079007E007F041200F6120CD6
:0A088B00C49000BC7401F0121F328B
:010895002240
:1021280090008DE07005121383800A90008DE0B452
:10213800010312053B9000BCE06005E4F012227A2E
:102148009000BDE07002A3E0600AE49000BDF0A337
:05215800F012200C2232
:0416F3004100C700EB
:101F8400D2B6D2A1C2B60020B70C9000C7E070064A
:101F9400740FF07F012220A20C9000C7E070067439
:101FA4000FF07F0222D2B6D2A1C2A10020B70C90BA
:101FB40000C7E07006740FF07F032220A20C90008B
:0D1FC400C7E07006740FF07F04227F00223A
:10234C00EF1FAC0670011E4C60080000000000007E
:03235C0080EE22EE
:102371007580FFD2B2C2B3D2B5E58020E7FBC2B50A
:012381002239
:10238200122371C2B2A20092B38F80D2B5C2B5221B
:1020BA00EF24FE600F14601114601324037018EDEE
:1020CA002480800DED24908008ED24888003ED247F
:1020DA0098FBE433FA80047A007B80AF03C20012D3
:0920EA0023827F017E0002234CD9
:101FD10090003EEBF0A3EAF0A3E9F0AF05900042D8
:101FE100E0FD1220BA90003EE0FBA3E0FAA3E0F985
:101FF10012011CFFD394004011D2001223829000E1
:0B2001003FE475F0011201A880DB2213
:10223600C2007F30122382C2007F08122382C200AE
:102246007F10122382C2007F0C122382C2007F01FC
:03225600022382DE
:101ED70052464944D6C7C4DCC3C5BDFB00BFC6BC18
:101EE700BC00CEAAC0CFC8CBBBA4BABD00B9A6C49C
:101EF700DCBCF2CAF6A3BA00CAB6B1F0B2BBCDAC2D
:101F0700C0E0D0CDB5C4BFA800CFD4CABEBFA8BA61
:101F1700C5D2D4BCB0D7B4CCAC00B6D4C0CFC8CB34
:0B1F2700BFA8B9D8D5D5D2BBCFC200EF
:10221200EF1FAA0670011E4A6019E4FCFDC3ED948B
:102222002CEC940150EA0000000000000DBD0001FA
:032232000C80EA33
:012235002286
:1021ED007C037DE8120196D3EF9400EE9400401429
:1021FD007D4C7C04ED1D70011CED4C70F7EF1F70D4
:04220D00E61E80E366
:0122110022AA
:10225900E4FBD296C2977FF47E01122212C296D273
:10226900977FC87E001222127590FF0BEBB405E22E
:012279002242
:0B23C70053B1EF43B210C2B4D2972212
:0523DE00C2B4D29722F9
:01000A0022D3
:0123E30022D7
:1022D900C2AF1223211223D81223C71223A012231B
:0A22E900DE12000A122259D2AF22C1
:10174D00E58720E40843871075C76080035387EF52
:10175D001222367BFF7A1E79D79000427401F0FD7C
:10176D00121FD17BFF7A1E79E49000427403F0FDC5
:10177D00121FD17BFF7A1E79E99000427402F07D31
:10178D0004121FD17F887E131222121222367F027D
:10179D007E001222127BFF7A1E79F4E4900042F053
:1017AD007D01121FD17BFF7A1E79FFE4900042F07C
:1017BD007D02121FD17BFF7A1F7910E4900042F059
:1017CD007D03121FD17BFF7A1F7921E4900042F037
:1017DD007D04121FD17F057E001221ED1222D91238
:0717ED0023E312212880F81C
:10000E00E4FDFCC3ED9FEC9E500A0000000DBD0008
:04001E00010C80EF62
:0100220022BB
:1022F300E4FFFEEF25E0FFC2A630A4034401FFD2B2
:06230300A60EEEB408ED89
:0123090022B1
:10229A00E4FEEF30E704D2A58002C2A50000C2A680
:0F22AA000000D2A60000EF25E0FF0EEEB408E31F
:0122B9002202
:10233700E4FEC2A7EF25E0547E4480FF12229A12E2
:0423470022F3D2A704
:01234B00226F
:10218F001221AB7D1E7F2D1221ABE4FD7F2C12217E
:0C219F00AB7D8D7F2A1221AB7D3E7F2B93
:1021AB00C2A7EF25E0547EFF12229AAF0512229AA6
:0221BB00D2A7A9
:0121BD0022FF
:05230A00F07D087F08D2
:02230F00AC0719
:10231100E4FE122337AE07AF04EDF45EFD0221ABFC
:0E22BA0012230FE4FD7F011221AB7D807F0A0D
:0222C800AC0761
:0F22CA00E4FE122337AE07AF04ED4EFD0221AB49
:061C8C007B017A00792FB4
:0E1C9200900042EBF0A3EAF0A3E9F0A3EDF01E
:101CA0007D047F051222BAE4FC900045E0FFECC3FE
:101CB0009F501C900042E0FBA3E0FAA3E0F98C8265
:101CC000758300120135FD7F091221AB0C80DA7D8E
:101CD000037F011221AB7CFF7F051223371CEC60D0
:101CE00004EF30E2F37F22122337900046E0FBA39B
:101CF000E0FAA3E0F9EF1201627F2112233790008E
:101D000046E0FBA3E0FAA3E0F9900001EF020174C2
:100AB30090004AF0A37401F0A37400F0A3742FF024
:100AC300A37401F0A37400F0A3742DF07A00792FBE
:040AD3007B017F0C18
:100AD700900047EBF0A3EAF0A3E9F0900046EFF0AF
:100AE70090005174FEF0E4A3F0A3F0EF24F460103B
:100AF70024FE70169000527412F0A37410F0800A4E
:100B07009000527477F0A37430F0900052E0448064
:100B1700FD7F021221AB7D807F041222BAE4900090
:100B270055F0A3F090004AE0FF900055E0FCA3E0E9
:100B3700FDC39FEC94005028900047E0FBA3E0FA28
:100B4700A3E0F98D828C83120135FD7F091221AB59
:100B5700900056E004F070CC900055E004F080C49B
:100B6700900046E0FD7F011221ABE0B40C077D80C9
:100B77007F0D1222C89000557407F0A374D0F07F40
:100B870004122337900054EFF0900056E024FFF052
:100B9700900055E034FFF0E07002A3E06011900090
:100BA70054E0FF20E009900053E0FEEF5E60D07D47
:100BB700807F0D12230F900055E07002A3E07003B1
:100BC700020CB07F06122337EF541B6003020CAAF6
:100BD700900051F0A3E0FF900054E05F30E00690F2
:100BE700005174FFF0900046E0640C6003020CB003
:100BF7007F0A122337900054EFF07F0C122337EF50
:100C07005407FD6026E024FFFFE434FFFEEF78037E
:100C1700C333CE33CED8F97C002DFFEC3EF99000DC
:100C27004EE0FBA3E0FAA3E0C98016900054E075FC
:100C3700F008A4FF90004EE0FBA3E0FAA3E0F9E57B
:100C4700F08FF012020C900054E0700204F0900054
:100C570054E0D3941240037412F0E4900055F0A3CB
:100C6700F0900054E0FFC3900056E09F900055E0DD
:100C7700940050357F0912233790004BE0FBA3E027
:100C8700FAA3E0F9900055E0FCA3E0F5828C83EF2E
:100C9700120174900056E004F070C6900055E0040D
:100CA700F080BE90005174FEF07D807F0C1222C848
:0C0CB700E4FD7F011221AB900051E0FF32
:010CC300220E
:0D1C040090002AEFF0A3EBF0A3EAF0A3E9B3
:101C110012230A7D077F0D1221AB7D037F1412224F
:101C2100C890002AE0900030F090004A7401F0A3BF
:101C3100F0A37400F0A37430F0A37401F0A3740056
:101C4100F0A3742EF07A007930120AD3EF70399034
:101C5100002EE07004A3E06410702D900030E0FECF
:101C610090002BE0FBA3E0FAA3E0F9EE12016290F1
:101C71000031E0FE90002BE0FBA3E0FAA3E0F99035
:0A1C81000001EE12017480027FFEE4
:011C8B002236
:0B15380090002AEBF0A3EAF0A3E9F01A
:10154300E490002E12230AE4FD7F0D1221AB7D806F
:101553007F0E12230F9000317493F0A37420F09048
:10156300004A7402F07B01A314F0A37400F0A37487
:1015730031F0A3EBF0A37400F0A3742FF07A007999
:10158300317F0C120AD790002DEFF07058FC7431A4
:101593002CF582E43400F583E0FE90002AE0FBA3FF
:1015A300E0FAA3E0F9AF048F82758300EE120174B1
:1015B30090002EE0FE74312FF582E43400F583E0D1
:1015C300FDEE6D90002EF00CECB404C274312CF5DA
:1015D30082E43400F583E0FF90002EE06F60069014
:1015E300002D74FEF07D807F0E1222C890002DE046
:0115F300FFF8
:0115F40022D4
:0B15F50090002AEBF0A3EAF0A3E9F05D
:1016000090002F7493F0A37470F0E4900035F0FC18
:1016100090002AE0FBA3E0FAA3E0F9AF048F827503
:101620008300120135FE74312FF582E43400F58316
:10163000EEF0900035E0FE8F82758300120135FDDB
:10164000EE6D900035F00CECB404C59000467401CA
:10165000F0A37400F0A37436F07B017A00792F7D3B
:1016600007121C9212230B90004A7409F0A3740114
:10167000F0A37400F0A3742FF0A37401F0A374001E
:10168000F0A3742DF07B017A00792F7F0C120AD71A
:10169000EF700F90002DE07004A3E064187003FF5A
:0416A00080027FFE47
:0116A4002223
:101E0D00900034EFF0A3EDF078367C007D017E007C
:101E1D007F061200F6783C7C007D0190002FE0FBE0
:101E2D00A3E0FAA3E0F97E007F061200F690004AC7
:101E3D00740CF0A37401F0A37400F0A37434F0A338
:101E4D007401F0A37400F0A37432F07B017A007971
:101E5D00347F0E120AD7AD07ED70097F08122337B4
:081E6D00EF20E3027DFEAF054A
:011E7500224A
:0B1A5B0090002AEBF0A3EAF0A3E9F0F2
:101A66009000307430F0A3EFF09000467401F0A3BC
:101A76007400F0A37432F07B017A0079307D021293
:101A86001C9290004A7404F0A37401F0A37400F051
:101A9600A37430F0A37401F0A37400F0A3742EF0C5
:101AA6007B017A0079307F0C120AD790002DEFF077
:101AB6007028A3E07004A3E06490701E90002AE0F2
:101AC600FBA3E0FAA3E0F8AC02AD037B017A007950
:101AD600307E007F101200F6800690002D74FEF016
:051AE60090002DE0FF5F
:011AEB0022D8
:0B19C50090002AEBF0A3EAF0A3E9F089
:1019D00090002F74A0F0A3EFF09000467401F0A3E4
:1019E0007400F0A37431F07D02121C8C7404120A8E
:1019F000B3EF701690002DE07004A3E06404700A49
:101A000090002FE0540F640A60027FFEEF704B7865
:101A10002F7C007D0190002AE0FBA3E0FAA3E0F90F
:101A20007E007F101200F69000467401F0A374004F
:101A3000F0A3743FF07D10121C8C7412120AB3EFE5
:101A4000701690002DE07004A3E06404700A90000A
:0A1A50002FE0540F640A60027FFECD
:011A5A002269
:101F320090002D7450F0E4A3F07B0190004604F071
:101F4200A37400F0A3742FF07A00792D7D02121C85
:101F52009290004A7404F0A37401F0A37400F0A3F9
:101F6200742DF0A37401F0A37400F0A3742BF07B22
:101F7200017A00792D7F0C120AD790002AEFF07FA8
:011F8200005E
:011F8300223B
:10215D00D2A37F0A7E0012000EC2A312000ED2A3DC
:10216D0012000E7D0F7F011221AB7F0A7E0012003F
:10217D000E7D3D7F1112218F7D407F151221AB7F8A
:02218D0000222E
:1021BE00EF6441702412230B7D3D7F111221AB7D04
:1021CE00867F171221AB7D7F7F2612218F7FE87EBF
:0F21DE000312000E12235F80037FFF227F002277
:10235F007F14122337EF540370077D037F1412226B
:01236F00C8A5
:01237000224A
:070003007D037F1402230FAF
:0E23A00012215D12000312235F7F410221BE55
:0F16F7004200C100004200C500004200BF0000D9
:10232100758921758C69758AFAD2A9D28C758DFB54
:06233100758BFBD28E2229
:03000B00021D10C3
:101D1000C0E0C0F0C083C082C0D075D000C000C099
:101D200001C002C003C004C005C006C007758C69AD
:101D3000758AFA9000C6E004F070069000C5E004D1
:101D4000F09000C0E004F070069000BFE004F09056
:101D500000C7E0600214F09000C1E475F0011201C8
:101D6000BEFEC3E5F09402EE9400400A900059E0F4
:101D7000B40103122392D007D006D005D004D003BB
:101D8000D002D001D000D0D0D082D083D0F0D0E02B
:011D90003220
:101706006032005A000000000000000000000000E7
:1017160000000000000000000000000000000000C3
:1017260000000000000000000000000000000000B3
:101736000000000000004100570041008C004100FD
:06174600590041005800AB
:0E23AE00C2ACC2998F993099FDC299D2AC226F
:0300230002192E91
:10192E00C0E0C083C082C0D075D000C004C006C065
:01193E0007A1
:10193F00309874C2989000C1E4F0A3F0AF99900072
:10194F0059E0FE7014EFB4FE107401F0900057E4EC
:10195F00F090008C74FFF0804EEE6401704990009F
:10196F0057E0FE04F0745A2EF582E43400F583EF4D
:10197F00F0900057E0FCB4021290005BE0FE900084
:10198F005AE02E240390008CF0801090008CE0FF22
:10199F00ECC39F40069000587401F0900057E0C3CD
:0719AF00942D4003742DF09C
:0F19B600D007D006D004D0D0D082D083D0E0327A
:0623D800759850D2AC2202
:03000000021B7868
:0C1B7800787FE4F6D8FD758120021BBFC9
:10002600E709F608DFFA8046E709F208DFFA803EBC
:1000360088828C83E709F0A3DFFA8032E309F608A9
:10004600DFFA8078E309F208DFFA807088828C8311
:10005600E309F0A3DFFA806489828A83E0A3F608C5
:10006600DFFA805889828A83E0A3F208DFFA804C9F
:1000760080D280FA80C680D4806980F28033801076
:1000860080A680EA809A80A880DA80E280CA8033DF
:1000960089828A83ECFAE493A3C8C582C8CCC58357
:1000A600CCF0A3C8C582C8CCC583CCDFE9DEE78027
:1000B6000D89828A83E493A3F608DFF9ECFAA9F0A6
:1000C600EDFB2289828A83ECFAE0A3C8C582C8CCFC
:1000D600C583CCF0A3C8C582C8CCC583CCDFEADE15
:1000E600E880DB89828A83E493A3F208DFF980CC77
:1000F60088F0EF60010E4E60C388F0ED2402B40470
:100106000050B9F582EB2402B4040050AF23234516
:06011600822390007673C5
:10011C00BB010689828A83E0225002E722BBFE02E1
:09012C00E32289828A83E4932214
:10013500BB010CE58229F582E5833AF583E022507F
:1001450006E92582F8E622BBFE06E92582F8E222C9
:0D015500E58229F582E5833AF583E49322E3
:10016200BB010689828A83F0225002F722BBFE017C
:02017200F32276
:10017400F8BB010DE58229F582E5833AF583E8F0C1
:10018400225006E92582C8F622BBFE05E92582C86D
:02019400F22255
:10019600EF8DF0A4A8F0CF8CF0A428CE8DF0A42E7D
:0201A600FE2237
:1001A800C5F0F8A3E028F0C5F0F8E58215827002E2
:0601B8001583E038F0227F
:1001BE00A3F8E0C5F025F0F0E582158270021583F4
:0601CE00E0C838F0E82251
:1001D400BB0110E58229F582E5833AF583E0F5F069
:1001E400A3E0225009E92582F886F008E622BBFE46
:1001F4000AE92582F8E2F5F008E222E5832AF5838C
:08020400E993F5F0A3E9932250
:10020C00BB010A89828A83F0E5F0A3F0225006F73D
:0F021C0009A7F01922BBFE06F3E5F009F319223A
:10022B0075F008758200EF2FFFEE33FECD33CDCC8A
:10023B0033CCC58233C5829BED9AEC99E58298400D
:10024B000CF582EE9BFEED9AFDEC99FC0FD5F0D6EA
:10025B00E4CEFBE4CDFAE4CCF9A88222B800C1B914
:10026B000059BA002DEC8BF084CFCECDFCE5F0CB52
:10027B00F97818EF2FFFEE33FEED33FDEC33FCEB8B
:10028B0033FB10D703994004EB99FB0FD8E5E4F946
:10029B00FA227818EF2FFFEE33FEED33FDEC33FC33
:1002AB00C933C910D7059BE99A4007EC9BFCE99A27
:1002BB00F90FD8E0E4C9FAE4CCFB2275F010EF2F6C
:1002CB00FFEE33FEED33FDCC33CCC833C810D7076C
:1002DB009BEC9AE899400AED9BFDEC9AFCE899F8A7
:0E02EB000FD5F0DAE4CDFBE4CCFAE4C8F9223A
:1002F900EB9FF5F0EA9E42F0E99D42F0E89C45F05B
:0103090022D1
:0C030A00ECF0A3EDF0A3EEF0A3EFF02266
:10031600A8828583F0D083D08212032D12032D127A
:10032600032D12032DE473E493A3C583C5F0C5839F
:10033600C8C582C8F0A3C583C5F0C583C8C582C831
:010346002294
:10034700D083D082F8E4937012740193700DA3A345
:1003570093F8740193F5828883E473740293B5F07C
:0D036700067403936860E9A3A3A3A380D8E4
:10037400E3F5F009E208B5F06D606B80F3E3F5F0A6
:1003840009E608B5F060605E80F387F009E608B519
:10039400F054605280F487F009E208B5F0486046F2
:1003A40080F488828C8387F009E0A3B5F038603646
:1003B40080F488828C8387F009E493A3B5F02760E6
:1003C4002580F388828C83E3F5F009E0A3B5F01669
:1003D400601480F388828C83E3F5F009E493A3B579
:1003E400F004600280F202049F808580E7808E80A2
:1003F400D2803C8015806C807E809B80B5808B8011
:10040400A1804F8070803A0204AB89828A83ECFA1F
:10041400E493F5F0A3C8C582C8CCC583CCE493A308
:10042400C8C582C8CCC583CCB5F070606E80E18944
:10043400828A83E493F5F0A3E208B5F05E605C8001
:10044400F289828A83E0F5F0A3E608B5F04D604BAB
:1004540080F389828A83E0F5F0A3E208B5F03C607A
:100464003A80F389828A83E493F5F0A3E608B5F031
:100474002A602880F2805389828A83ECFAE493F517
:10048400F0A3C8C582C8CCC583CCE0A3C8C582C8C4
:10049400CCC583CCB5F004600280E27FFFB5F002E6
:1004A4000F2240027F012289828A83ECFAE0F5F070
:1004B400A3C8C582C8CCC583CCE0A3C8C582C8CCB8
:1004C400C583CCB5F0D560D380E389828A83ECFA06
:1004D400E0F5F0A3C8C582C8CCC583CCE493A3C817
:1004E400C582C8CCC583CCB5F0B160AF80E288F0DA
:1004F400ED2402B4040050A3F582EB2402B40400FA
:0B050400509923234582239003ED73E0
:10050F00EF4E6012EF60010EEDBB010B89828A8303
:10051F00F0A3DFFCDEFA2289F05007F709DFFCA910
:0C052F00F022BBFEFCF309DFFCA9F02267
:101B840002174DE493A3F8E493A34003F68001F213
:101B940008DFF48029E493A3F85407240CC8C33362
:101BA400C4540F4420C8834004F456800146F6DF31
:101BB400E4800B01020408102040809016A5E47E06
:101BC400019360BCA3FF543F30E509541FFEE49326
:101BD400A360010ECF54C025E060A840B8E493A3ED
:101BE400FAE493A3F8E493A3C8C582C8CAC583CA18
:101BF400F0A3C8C582C8CAC583CADFE9DEE780BED0
:01174C00009C
:00000001FF
